:020000023000CC
:10E000000D9489F10D94B2F10D94B2F10D94B2F129
:10E010000D94B2F10D94B2F10D94B2F10D94B2F1F0
:10E020000D94B2F10D94B2F10D94B2F10D94B2F1E0
:10E030000D94B2F10D94B2F10D94B2F10D94B2F1D0
:10E040000D94B2F10D94B2F10D94B2F10D94B2F1C0
:10E050000D94B2F10D94B2F10D94B2F10D94B2F1B0
:10E060000D94B2F10D94B2F10D94B2F10D94B2F1A0
:10E070000D94B2F10D94B2F10D94B2F10D94B2F190
:10E080000D94B2F10D94B2F10D94B2F10D94B2F180
:10E090000D94B2F10D94B2F10D94B2F10D94B2F170
:10E0A0000D94B2F10D94B2F10D94B2F10D94B2F160
:10E0B0000D94B2F10D94B2F10D94B2F10D94B2F150
:10E0C0000D94B2F10D94B2F10D94B2F10D94B2F140
:10E0D0000D94B2F10D94B2F10D94B2F10D94B2F130
:10E0E0000D94B2F12A00593D506F727420626C6930
:10E0F0006E6B00563D73686F7720696E746572723F
:10E1000075707420566563746F727300523D447568
:10E110006D702052414D00513D51756974004C3D68
:10E120004C69737420492F4F20506F7274730048EC
:10E130003D48656C7000463D44756D7020464C410D
:10E14000534800453D44756D7020454550524F4D34
:10E1500000423D426C696E6B204C454400403D4599
:10E160004550524F4D2074657374003F3D435055E8
:10E1700020737461747300303D5A65726F2061645E
:10E18000647200504F5254004545206572722063FE
:10E190006E743D0052656164696E672045450057A5
:10E1A00072697474696E672045450020004D75736F
:10E1B000742062652061206C657474657200506F14
:10E1C0007274206E6F7420737570706F72746564F2
:10E1D000005768617420706F72743A006A6D702025
:10E1E00000726A6D702020006E6F20766563746F18
:10E1F00072005623202020414444522020206F707A
:10E2000020636F64652020202020696E737472750E
:10E210006374696F6E2061646472202020496E749B
:10E2200065727275707400372E332E3000322E30C6
:10E230002E30004170722032312032303230004CAA
:10E240006F636B20667573652020203D2000457844
:10E25000742066757365202020203D200048696782
:10E260006820667573652020203D20004C6F772064
:10E2700066757365202020203D20004350552049BD
:10E28000442020202020203D200047434320566585
:10E290007273696F6E203D2000415652204C6962B6
:10E2A00043205665723D20005F5F4156525F4152E8
:10E2B00043485F5F3D2000435055205479706520EE
:10E2C0002020203D2000436F6D70696C6564206FD5
:10E2D0006E203D20004875683F00426F6F746C6F80
:10E2E000616465723E0041726475696E6F20657885
:10E2F000706C6F7265722073746B353030563220DB
:10E300006279204D4C530041546D6567613235365A
:10E31000300011241FBECFEFD1E2DEBFCDBF01E040
:10E320000CBF12E0A0E0B2E0E0EFF7EF03E00BBFBC
:10E3300002C007900D92A430B107D9F722E0A4E003
:10E34000B2E001C01D92A231B207E1F70F94F6F2DC
:10E350000D94F6FB01E20EBF0FEF0DBF11241FBE9F
:10E360000D94F6F20D9400F08093C6008091C000E9
:10E3700086FFFCCF8091C00080648093C000089528
:10E3800030E020E02817390709F40895EFECF7E0B2
:10E390003197F1F700C000002F5F3F4FF3CF0F938D
:10E3A0001F93CF93DF938C01D62FC8018D0F911D42
:10E3B000092E000CAA0BBB0BABBFFC01C791CC23F1
:10E3C00019F08C2F0F94B4F1DF5FC111EECFDF9104
:10E3D000CF911F910F9108958DE00F94B4F18AE0D1
:10E3E0000D94B4F10F94CFF10D94ECF1CF93DF9332
:10E3F000EC018991882319F00F94B4F1FACFDF91E1
:10E40000CF910895CF93C82F982F92959F7080E356
:10E41000890F8A3310F087E3890F0F94B4F1CF701E
:10E4200080E38C0F8A3310F087E38C0FCF910D942B
:10E43000B4F10F931F93CF93DF93EC018B018536DB
:10E4400091051CF4633071054CF0CE0164E670E078
:10E450000F948FFB80E3860F0F94B4F1CB30D1057E
:10E460001CF4023011056CF0CE0164E670E00F94EC
:10E470008FFB6AE070E00F948FFB80E3860F0F94B0
:10E48000B4F1CE016AE070E00F948FFB805DDF9104
:10E49000CF911F910F910D94B4F18091C00087FF2F
:10E4A000FCCF8091C6000895CF93C82F60E083E829
:10E4B00091EE0F94CFF18C2F0F94B4F1CF910D9476
:10E4C000ECF12F923F924F925F926F927F928F92D8
:10E4D0009F92AF92BF92CF92DF92EF92FF920F93F3
:10E4E0001F93CF93DF93CDB7DEB763970FB6F89442
:10E4F000DEBF0FBECDBF8B8B6A017B0180E1A82EF2
:10E500004E0181E1880E911CE1E0CE16D104EE06A9
:10E51000F10418F08E2D0F9402F28D2D0F9402F25B
:10E520008C2D0F9402F280E20F94B4F18DE20F94DF
:10E53000B4F180E20F94B4F119828E010F5F1F4F86
:10E54000260137011801FB89F13009F443C0F2308C
:10E5500009F445C06BBEF201B7908B2D0F9402F207
:10E5600080E20F94B4F180EE8B0D8F35D8F5F80171
:10E57000B082EFEF4E1A5E0A6E0A7E0A0F5F1F4FDF
:10E580000815190501F7F0E1CF0ED11CE11CF11CB3
:10E59000198AC1010F94F6F10F94ECF1AA94A1101D
:10E5A000B3CF63960FB6F894DEBF0FBECDBFDF9139
:10E5B000CF911F910F91FF90EF90DF90CF90BF9080
:10E5C000AF909F908F907F906F905F904F903F9013
:10E5D0002F900895C2010F94E0FBB82EBECFF20138
:10E5E000B080BBCF8EE2F8018083C3CFCF93DF939F
:10E5F000CDB7DEB7C453D1400FB6F894DEBF0FBE1F
:10E60000CDBF01E20EBF0FEF0DBF94B7F894A895F0
:10E6100014BE809160008861809360001092600059
:10E62000789493FF05C0E0910402F09105021995DA
:10E63000279A2F9A8091C00082608093C00080E169
:10E640008093C40088E18093C100000010E000E0E6
:10E65000C12CD12C760137EC832E3BE1932EA12CDB
:10E66000B12C8091C00087FD03C00115110541F157
:10E67000012B09F0D0C6C75DDE4F19821882C9523E
:10E68000D140B12CA12CC95DDE4F19821882C7522E
:10E69000D140CE5DDE4F188219821A821B82C2528F
:10E6A000D140C12CD12C760141E050E0CA5DDE4F53
:10E6B0001882C652D140712C30E020E080E060C565
:10E6C00025E02A95F1F700003FEFC31AD30AE30AC9
:10E6D000F30A91E080E041E2C4164EE4D406E1047E
:10E6E000F10408F490E0092F182FC701B601A50125
:10E6F00094010F94A3FB672B682B692B09F0B1CF12
:10E7000085B1805885B9ADCF415051096109710972
:10E7100071F46BBFFA01479156914F3F5F4F19F06B
:10E72000EE27FF27099441E052E16AE770E09091FB
:10E73000C00097FFE9CF28C5123409F4ACC11534E5
:10E7400009F090C562E083E491EE0F94F2F14091FC
:10E75000060250910702609108027091090281E05F
:10E760000F9461F28091060290910702A091080235
:10E77000B09109029F5FAF4FBF4F80930602909305
:10E780000702A0930802B093090281159041A105E8
:10E79000B10508F444C573C0113509F4FBC168F52F
:10E7A000183409F4B5C11C3409F05CC562E08EE18F
:10E7B00091EE0F94F2F181E40F9454F282E40F94FD
:10E7C00054F283E40F9454F284E40F9454F285E4F9
:10E7D0000F9454F286E40F9454F287E40F9454F2A9
:10E7E00088E40F9454F28AE40F9454F28BE40F946B
:10E7F00054F28CE40F9454F212C5163509F4FDC19D
:10E80000193509F4A0C3123509F02CC562E08CE07B
:10E8100091EE0F94F2F140910E0250910F0260912F
:10E8200010027091110282E00F9461F280910E0249
:10E8300090910F02A0911002B09111029F5FAF4F13
:10E84000BF4F80930E0290930F02A0931002B093DB
:10E850001102E5C462E087E791EE0F94F2F11092A5
:10E860000A0210920B0210920C0210920D021092EA
:10E870000E0210920F0210921002109211021092CA
:10E880000602109207021092080210920902C7C4F1
:10E8900062E08BE691EE0F94F2F160E086EE92EE8C
:10E8A0000F94F2F160E086EC92EE0F94CFF160E00D
:10E8B00083E392EE0F94F2F160E087EB92EE0F9417
:10E8C000CFF160E087E093EE0F94F2F160E088EA28
:10E8D00092EE0F94CFF186E30F94B4F10F94ECF124
:10E8E00060E08AE892EE0F94CFF160E087E292EE6A
:10E8F0000F94F2F160E089E992EE0F94CFF160E0BD
:10E900008DE292EE0F94F2F160E08BE792EE0F94BD
:10E91000CFF18EE10F9402F288E90F9402F281E0C8
:10E920000F9402F20F94ECF160E08CE692EE0F94FB
:10E93000CFF129E0F0E0E0E02093570084910F94BC
:10E9400002F20F94ECF160E08DE592EE0F94CFF1BE
:10E9500029E0E3E0F0E02093570084910F9402F265
:10E960000F94ECF160E08EE492EE0F94CFF1E2E0D0
:10E97000F0E039E03093570084910F9402F20F9445
:10E98000ECF160E08FE392EE0F94CFF1E1E0F0E084
:10E9900049E04093570084910F9402F20F94ECF1F8
:10E9A0003EC462E08DE591EE0F94F2F160E08FE9F4
:10E9B00091EE0F94F2F10F94ECF1B12CA12CC50162
:10E9C0008A519D41092E000CAA0BBB0BABBFFC0169
:10E9D00017911A3221F0A11462E0B60691F50F9456
:10E9E000ECF10F94ECF160E084E991EE0F94F2F118
:10E9F0000F94ECF1912C812CB12CA12CC5018A51E2
:10EA00009D41092E000CAA0BBB0BABBFFC0117915B
:10EA10001A3221F0A11492E0B90631F50F94ECF10D
:10EA20000F94ECF160E088E891EE0F94CFF161E093
:10EA300070E0C4010F9419F20F94ECF10F94ECF113
:10EA40001ECF612FC5010F94E8FB111109C060E0D2
:10EA50008BEA91EE0F94CFF15FEFA51AB50AAFCF15
:10EA6000812F0F94B4F1F8CFC5010F94E0FB782EFD
:10EA700081110EC060E08BEA91EE0F94CFF1711618
:10EA800019F07FEF871A970A8FEFA81AB80AB6CF46
:10EA90000F94B4F1F4CF62E081E591EE0F94F2F1BE
:10EAA000279A2F9A8091C00087FF03C00F944DF2E0
:10EAB000B6C32F9884E690E00F94C0F12F9A84E6B5
:10EAC00090E00F94C0F1EECF62E086E391EE0F94F8
:10EAD000F2F140910A0250910B0260910C02709188
:10EAE0000D0280E00F9461F280910A0290910B0276
:10EAF000A0910C02B0910D029F5FAF4FBF4F80936A
:10EB00000A0290930B02A0930C02B0930D0287C3EC
:10EB100062E08FE291EE0F94F2F160E087E791EE10
:10EB20000F94F2F160E08BE691EE0F94F2F160E069
:10EB30008DE591EE0F94F2F160E081E591EE0F9496
:10EB4000F2F160E083E491EE0F94F2F160E086E38D
:10EB500091EE0F94F2F160E08FE291EE0F94F2F1FA
:10EB600060E08EE191EE0F94F2F160E087E191EECA
:10EB70000F94F2F160E08CE091EE0F94F2F160E01E
:10EB800083EF90EE0F94F2F160E086EE90EE0F943A
:10EB9000F2F145C362E087E191EE0F94F2F1B12CFE
:10EBA000A12C662463942981233109F4CAC408F096
:10EBB000A9C3263009F4B8C408F099C3223009F477
:10EBC00066C4233009F453C4213009F098C31A8273
:10EBD00088E08B8381E48C8386E58D8382E58E8358
:10EBE00089E48F8383E5888780E589878FE58A8735
:10EBF00082E38B870BE010E0D3C362E083EF90EEFB
:10EC00000F94F2F160E087E093EE0F94F2F160E090
:10EC100082EF91EE0F94F2F1312C212CC25EDE4F87
:10EC2000188219821A821B82CE51D140C25EDE4FF9
:10EC3000288139814A815B81CE51D14056954795D3
:10EC400037952795C55DDE4F288339834A835B83DB
:10EC5000CB52D1403FEF231A330A62E070E0C1018A
:10EC60000F9419F280E20F94B4F18DE20F94B4F195
:10EC700080E20F94B4F180E00F9402F2C55DDE4FA4
:10EC80008881CB52D1400F9402F280E20F94B4F10C
:10EC90008DE30F94B4F180E20F94B4F1C25EDE4FC5
:10ECA000488159816A817B81CE51D1406BBFFA0185
:10ECB0005791CD5CDE4F5883C353D140452E512C24
:10ECC000712C612CC25EDE4F88819981AA81BB8143
:10ECD000CE51D1400196A11DB11DABBFFC01879162
:10ECE000282F30E050E040E0C15DDE4F28833983BB
:10ECF0004A835B83CF52D140C25EDE4F4881598147
:10ED00006A817B81CE51D1404E5F5F4F6F4F7F4F05
:10ED10006BBFFA013791CC5CDE4F3883C453D140CE
:10ED2000C25EDE4F488159816A817B81CE51D140DC
:10ED30004D5F5F4F6F4F7F4F6BBFFA011791C25E00
:10ED4000DE4F488159816A817B81CE51D1404C5F31
:10ED50005F4F6F4F7F4FC25EDE4F488359836A8398
:10ED60007B83CE51D140C15DDE4F288139814A81FC
:10ED70005B81CF52D1408824922EA32EB42E840CD6
:10ED8000951CA61CB71C0F9402F280E20F94B4F1FC
:10ED9000CD5CDE4F8881C353D1400F9402F280E2F4
:10EDA0000F94B4F1812F0F9402F280E20F94B4F12A
:10EDB000CC5CDE4F8881C453D1400F9402F280E2D4
:10EDC0000F94B4F13FEF83169306A104B10469F4E4
:10EDD00060E088EE91EE0F94CFF10F94ECF129E30F
:10EDE0002216310409F022CF1AC2D501C4018827A6
:10EDF000907CAA27BB278115904CA105B10579F518
:10EE00005FE39522AA24BB24C55DDE4F488059806C
:10EE10006A807B80CB52D140480C591C6A1C7B1CF9
:10EE2000440C551C661C771C60E081EE91EE0F943B
:10EE3000CFF1892D0F9402F2882D0F9402F280E217
:10EE40000F94B4F18EE30F94B4F180E00F9402F2CA
:10EE5000852D0F9402F2842D0F9402F2BECF6EE046
:10EE60008622E89490F8AA24BB247CE0871674E9F3
:10EE70009706A104B10409F0B0CF812F90E0B0E073
:10EE8000A0E0BA2FA92F982F8827CC5CDE4FE8810D
:10EE9000C453D1408E0F911DA11DB11DC15DDE4F28
:10EEA000488159816A817B81CF52D14035E1440F3D
:10EEB000551F661F771F3A95D1F744275527607273
:10EEC0007727840F951FA61FB71FB2015527442728
:10EED0004427552761707727E1E1440C551C661CD7
:10EEE000771CEA95D1F744245524F0EE6F22F1E027
:10EEF0007F22442A552A662A772A480E591E6A1EFE
:10EF00007B1E53014201880C991CAA1CBB1C60E0AB
:10EF10008CED91EE0F94CFF1862D0F9402F2852D9A
:10EF20000F9402F2842D0F9402F280E20F94B4F158
:10EF30008EE30F94B4F18A2D0F9402F2892D0F9471
:10EF400002F2882D89CF62E086EE90EE0F94F2F106
:10EF500060E081ED91EE0F94CFF10F944DF2182FF8
:10EF60001F75812F0F94B4F10F94ECF18FEB810F8B
:10EF70008A3108F0D9C0163409F47EC0C8F41334BD
:10EF800009F454C048F4113499F1123409F43FC023
:10EF900060E08EEB91EEFBCD143409F456C01534CD
:10EFA000B9F70DB98091C00087FF5EC01EB87ECD55
:10EFB0001A3409F489C070F4173409F46CC0183499
:10EFC00039F7009301018091C00087FF73C0109250
:10EFD00002016CCD1B3409F48AC01C34C9F60093BD
:10EFE0000A018091C00087FF95C010920B015ECD91
:10EFF00001B98091C00087FF02C012B857CD82B11D
:10F00000809582B988EC90E00F94C0F1F2CF04B9FA
:10F010008091C00087FF02C015B848CD85B18095AA
:10F0200085B988EC90E00F94C0F1F2CF07B98091D8
:10F03000C00087FF02C018B839CD88B1809588B963
:10F0400088EC90E00F94C0F1F2CF0AB98091C00033
:10F0500087FF02C01BB82ACD8BB180958BB988EC95
:10F0600090E00F94C0F1F2CF8EB180958EB988EC0C
:10F0700090E00F94C0F196CF00BB8091C00087FF55
:10F0800002C011BA13CD81B3809581BB88EC90E0AA
:10F090000F94C0F1F2CF03BB8091C00087FF02C084
:10F0A00014BA04CD84B3809584BB88EC90E00F94AF
:10F0B000C0F1F2CF8091020180958093020188EC2B
:10F0C00090E00F94C0F17FCF009304018091C000C5
:10F0D00087FF03C010920501E9CC8091050180955E
:10F0E0008093050188EC90E00F94C0F1EFCF00937E
:10F0F00007018091C00087FF03C010920801D6CCA1
:10F100008091080180958093080188EC90E00F942D
:10F11000C0F1EFCF80910B01809580930B0188ECBB
:10F1200090E00F94C0F15DCF60E08DEA91EE2FCDBD
:10F13000833009F4A5C068F4813009F497C0C8F0A1
:10F14000B12CA12C292F30E0322F2227792683E001
:10F1500015C0853009F4A8C008F498C0B12CA12CC2
:10F16000863009F4D7C2B12CA12C873039F4612C38
:10F170001ACDB12CA12C9B3109F4ADC250E040E076
:10F180004130510509F0CFCA9091C600C75DDE4FEE
:10F19000A881B981C952D1401196C75DDE4FB983AC
:10F1A000A883C952D140913219F61A9708F09FC22C
:10F1B000BFEFAB1ABB0AE3E0AE16B10409F099C287
:10F1C00025E0A22EB12C09E110E081E20F94B4F108
:10F1D00001501109D1F70F94ECF1F1E0AF1AB10829
:10F1E00091F710920E0210920F02109210021092DC
:10F1F000110210920A0210920B0210920C0210924D
:10F200000D0210920602109207021092080210924C
:10F21000090260E086EE92EE0F94F2F10FEF60E0EB
:10F220008AED92EE0F94CFF10F944DF2182F8036A5
:10F2300008F01F751032B0F0812F0F94B4F180E206
:10F240000F94B4F1163409F43FCC08F0A5CA103479
:10F2500009F4A7CB08F070CA103309F4FBCA1F33B6
:10F2600009F416CB60E085ED92EE91CCB12CA12C87
:10F270007926CA5DDE4F9883C652D14082E07ECFA8
:10F28000B12CA12C292B792684E078CFB12CA12C8C
:10F290009E3009F042C27926C95DDE4F198218827C
:10F2A000C752D14085E06ACFB12CA12CC95DDE4F99
:10F2B00048815981C752D1404F5F5F4FE1E0F0E094
:10F2C000EC0FFD1FC95DDE4F68817981C752D140C7
:10F2D000E60FF71F908379264217530709F4FFC101
:10F2E000C95DDE4F59834883C752D140DBCF2131FE
:10F2F00009F4CBC008F00BC1203109F4C8C080EC80
:10F300008A83C6C0283109F4DEC058F5253109F4D6
:10F3100018C110F0263199F78A819B819827892797
:10F3200098278C010D5F1F4F1A82243109F09BC171
:10F33000DE011196EBBEF6012791369112962C93C1
:10F340001297FD01349613963C93139742E0C40E36
:10F35000D11CE11CF11C02971296009759F71082FC
:10F360001FC02A3109F4A3C008F4C2C02B3109F42C
:10F3700092C02D3109F0C3CF9D81903309F05FC059
:10F380008F81882309F46FC0813009F06EC088E94D
:10F390001A821B829C831D828E831F8207E010E0ED
:10F3A0008BE10F94B4F1CA5DDE4F8881C652D14023
:10F3B0000F94B4F1812F0F94B4F1802F0F94B4F116
:10F3C00095E1792ECA5DDE4F5881C652D14075262F
:10F3D00070268EE00F94B4F17126BE016F5F7F4FEF
:10F3E0004B01060F171F0815190509F068C1872D75
:10F3F0000F94B4F1CA5DDE4FB881C652D140BF5FF1
:10F40000CA5DDE4FB883C652D14085B1805885B9F8
:10F41000662009F45CC127982F9884E690E00F9449
:10F42000C0F100008091C0008D7F8093C00081E119
:10F4300080935700E895EE27FF270994FFCF892F87
:10F44000807509F4A5CF89E0F0E0E0E0903539F06F
:10F4500080E0983509F09CCF89E0E3E0F0E080930C
:10F460005700849195CF8EE193CF81E091CFEA81CF
:10F47000E05980E0E33020F4F0E0E050FE4F80817E
:10F480001A828B8303E010E08BCF662463941A8288
:10F4900002E010E085CF8D81882329F0813029F4A6
:10F4A00088E91A820BC08EE1FCCF81E0FACF1A8284
:10F4B00089E0E1E0F0E08093570084918B831C8227
:10F4C00004E010E06DCF8B81803571F48C81883041
:10F4D00039F489E0E2E0F0E0809357008491E1CFD5
:10F4E00089E0F0E0E0E0F8CF89E0E3E0F0E0F4CF9D
:10F4F0008D81836C99E0E1E0F0E0082E9093570055
:10F50000E89507B600FCFDCF1A821B82BBCF80ECCA
:10F510008A8302E010E0CE5DDE4F188219821A82E3
:10F520001B82C252D1403CCF6A817B818C819D81FC
:10F530000F94C5FB6B017C01CC0CDD1CEE1CFF1C89
:10F54000A6CF8A819B81982789279827233109F0A4
:10F5500061C0CE5DDE4F288139814A815B81C25214
:10F56000D1402115304E4340510528F523E0CE5DB2
:10F57000DE4F488159816A817B81C252D140FA01B4
:10F5800060935B0020935700E89507B600FCFDCF21
:10F59000CE5DDE4F288139814A815B81C252D140E4
:10F5A0003F5F4F4F5F4FCE5DDE4F288339834A83E5
:10F5B0005B83C252D1402B85DE011196B701A601B3
:10F5C00011E01B963C911B970901FA0160935B00C7
:10F5D00010935700E89511244E5F5F4F6F4F7F4F98
:10F5E00002971296009721F01A962C911A97E9CF5C
:10F5F00035E0F601E0925B0030935700E89507B6DE
:10F6000000FCFDCF81E180935700E8951A826A01E2
:10F610007B013ECFFE0131969F01280F391FB701B4
:10F62000A60141BD252E362E472E552422BC4F5F04
:10F630005F4F6F4F7F4FA285A0BDFA9AF99AF99953
:10F64000FECF31962E173F0761F70197B0E0A0E09B
:10F65000AC01BD014F5F5F4F6F4F7F4F4C0D5D1D84
:10F660006E1D7F1DD3CFFE0131969F01280F391FDC
:10F67000B701A60141BD252E362E472E552422BCAA
:10F680004F5F5F4F6F4F7F4FF89AA0B5A2833196BF
:10F690002E173F0779F7AC014150510970E060E047
:10F6A0004F5F5F4F6F4F7F4FC40ED51EE61EF71E94
:10F6B000E3E0F0E0EC0FFD1FE80FF91F50CED4019E
:10F6C0005D904D01852D0F94B4F175248CCE50E0E2
:10F6D00040E00D945CF38BE1782E81E04FCDC95D65
:10F6E000DE4F39832883C752D14086E047CDB12C05
:10F6F000A12C833009F4C6CD30F4813009F4B8CDA3
:10F7000008F43CCD1FCD853009F4D0CD30F08630E3
:10F7100009F02BCD971509F42ACD80E02FCD97FB6A
:10F72000072E16F4009407D077FD09D00F94CCFB78
:10F7300007FC05D03EF4909581959F4F08957095F4
:10F7400061957F4F0895A1E21A2EAA1BBB1BFD01F4
:10F750000DC0AA1FBB1FEE1FFF1FA217B307E407B0
:10F76000F50720F0A21BB30BE40BF50B661F771F08
:10F77000881F991F1A9469F76095709580959095E8
:10F780009B01AC01BD01CF01089569279627692728
:10F790007827872778270895AA1BBB1B51E107C04C
:10F7A000AA1FBB1FA617B70710F0A61BB70B881F11
:10F7B000991F5A95A9F780959095BC01CD010895A0
:10F7C000F999FECF92BD81BDF89A992780B5089529
:10F7D000262FF999FECF1FBA92BD81BD20BD0FB66D
:10F7E000F894FA9AF99A0FBE01960895F894FFCF0B
:04F7F0000F020A00FA
:040000033000E000E9
:00000001FF
